{
	"data": {
		"bytecode": {
			"linkReferences": {},
			"object": "6080604052348015600e575f80fd5b505f808190555061038f806100225f395ff3fe608060405234801561000f575f80fd5b506004361061004a575f3560e01c806316e9fe811461004e5780633fa4f2451461005857806360fe47b114610076578063d09de08a14610092575b5f80fd5b61005661009c565b005b6100606100e7565b60405161006d919061017a565b60405180910390f35b610090600480360381019061008b91906101c1565b6100ec565b005b61009a610137565b005b5f8054146100df576040517f08c379a00000000000000000000000000000000000000000000000000000000081526004016100d690610246565b60405180910390fd5b5f8081905550565b5f5481565b5f811161012e576040517f08c379a0000000000000000000000000000000000000000000000000000000008152600401610125906102ae565b60405180910390fd5b805f8190555050565b5f60015f5461014691906102f9565b90505f5481116101595761015861032c565b5b805f8190555050565b5f819050919050565b61017481610162565b82525050565b5f60208201905061018d5f83018461016b565b92915050565b5f80fd5b6101a081610162565b81146101aa575f80fd5b50565b5f813590506101bb81610197565b92915050565b5f602082840312156101d6576101d5610193565b5b5f6101e3848285016101ad565b91505092915050565b5f82825260208201905092915050565b7f56616c7565206973206e6f74207a65726f2c2063616e6e6f742072657365742e5f82015250565b5f6102306020836101ec565b915061023b826101fc565b602082019050919050565b5f6020820190508181035f83015261025d81610224565b9050919050565b7f56616c7565206d7573742062652067726561746572207468616e207a65726f005f82015250565b5f610298601f836101ec565b91506102a382610264565b602082019050919050565b5f6020820190508181035f8301526102c58161028c565b9050919050565b7f4e487b71000000000000000000000000000000000000000000000000000000005f52601160045260245ffd5b5f61030382610162565b915061030e83610162565b9250828201905080821115610326576103256102cc565b5b92915050565b7f4e487b71000000000000000000000000000000000000000000000000000000005f52600160045260245ffdfea26469706673582212203a67d24258eb81422067a8028a0d5250a8f77fedaff2fd0dc6e18fceb5ac8fcb64736f6c634300081a0033",
			"opcodes": "PUSH1 0x80 PUSH1 0x40 MSTORE CALLVALUE DUP1 ISZERO PUSH1 0xE JUMPI PUSH0 DUP1 REVERT JUMPDEST POP PUSH0 DUP1 DUP2 SWAP1 SSTORE POP PUSH2 0x38F DUP1 PUSH2 0x22 PUSH0 CODECOPY PUSH0 RETURN INVALID PUSH1 0x80 PUSH1 0x40 MSTORE CALLVALUE DUP1 ISZERO PUSH2 0xF JUMPI PUSH0 DUP1 REVERT JUMPDEST POP PUSH1 0x4 CALLDATASIZE LT PUSH2 0x4A JUMPI PUSH0 CALLDATALOAD PUSH1 0xE0 SHR DUP1 PUSH4 0x16E9FE81 EQ PUSH2 0x4E JUMPI DUP1 PUSH4 0x3FA4F245 EQ PUSH2 0x58 JUMPI DUP1 PUSH4 0x60FE47B1 EQ PUSH2 0x76 JUMPI DUP1 PUSH4 0xD09DE08A EQ PUSH2 0x92 JUMPI JUMPDEST PUSH0 DUP1 REVERT JUMPDEST PUSH2 0x56 PUSH2 0x9C JUMP JUMPDEST STOP JUMPDEST PUSH2 0x60 PUSH2 0xE7 JUMP JUMPDEST PUSH1 0x40 MLOAD PUSH2 0x6D SWAP2 SWAP1 PUSH2 0x17A JUMP JUMPDEST PUSH1 0x40 MLOAD DUP1 SWAP2 SUB SWAP1 RETURN JUMPDEST PUSH2 0x90 PUSH1 0x4 DUP1 CALLDATASIZE SUB DUP2 ADD SWAP1 PUSH2 0x8B SWAP2 SWAP1 PUSH2 0x1C1 JUMP JUMPDEST PUSH2 0xEC JUMP JUMPDEST STOP JUMPDEST PUSH2 0x9A PUSH2 0x137 JUMP JUMPDEST STOP JUMPDEST PUSH0 DUP1 SLOAD EQ PUSH2 0xDF JUMPI PUSH1 0x40 MLOAD PUSH32 0x8C379A000000000000000000000000000000000000000000000000000000000 DUP2 MSTORE PUSH1 0x4 ADD PUSH2 0xD6 SWAP1 PUSH2 0x246 JUMP JUMPDEST PUSH1 0x40 MLOAD DUP1 SWAP2 SUB SWAP1 REVERT JUMPDEST PUSH0 DUP1 DUP2 SWAP1 SSTORE POP JUMP JUMPDEST PUSH0 SLOAD DUP2 JUMP JUMPDEST PUSH0 DUP2 GT PUSH2 0x12E JUMPI PUSH1 0x40 MLOAD PUSH32 0x8C379A000000000000000000000000000000000000000000000000000000000 DUP2 MSTORE PUSH1 0x4 ADD PUSH2 0x125 SWAP1 PUSH2 0x2AE JUMP JUMPDEST PUSH1 0x40 MLOAD DUP1 SWAP2 SUB SWAP1 REVERT JUMPDEST DUP1 PUSH0 DUP2 SWAP1 SSTORE POP POP JUMP JUMPDEST PUSH0 PUSH1 0x1 PUSH0 SLOAD PUSH2 0x146 SWAP2 SWAP1 PUSH2 0x2F9 JUMP JUMPDEST SWAP1 POP PUSH0 SLOAD DUP2 GT PUSH2 0x159 JUMPI PUSH2 0x158 PUSH2 0x32C JUMP JUMPDEST JUMPDEST DUP1 PUSH0 DUP2 SWAP1 SSTORE POP POP JUMP JUMPDEST PUSH0 DUP2 SWAP1 POP SWAP2 SWAP1 POP JUMP JUMPDEST PUSH2 0x174 DUP2 PUSH2 0x162 JUMP JUMPDEST DUP3 MSTORE POP POP JUMP JUMPDEST PUSH0 PUSH1 0x20 DUP3 ADD SWAP1 POP PUSH2 0x18D PUSH0 DUP4 ADD DUP5 PUSH2 0x16B JUMP JUMPDEST SWAP3 SWAP2 POP POP JUMP JUMPDEST PUSH0 DUP1 REVERT JUMPDEST PUSH2 0x1A0 DUP2 PUSH2 0x162 JUMP JUMPDEST DUP2 EQ PUSH2 0x1AA JUMPI PUSH0 DUP1 REVERT JUMPDEST POP JUMP JUMPDEST PUSH0 DUP2 CALLDATALOAD SWAP1 POP PUSH2 0x1BB DUP2 PUSH2 0x197 JUMP JUMPDEST SWAP3 SWAP2 POP POP JUMP JUMPDEST PUSH0 PUSH1 0x20 DUP3 DUP5 SUB SLT ISZERO PUSH2 0x1D6 JUMPI PUSH2 0x1D5 PUSH2 0x193 JUMP JUMPDEST JUMPDEST PUSH0 PUSH2 0x1E3 DUP5 DUP3 DUP6 ADD PUSH2 0x1AD JUMP JUMPDEST SWAP2 POP POP SWAP3 SWAP2 POP POP JUMP JUMPDEST PUSH0 DUP3 DUP3 MSTORE PUSH1 0x20 DUP3 ADD SWAP1 POP SWAP3 SWAP2 POP POP JUMP JUMPDEST PUSH32 0x56616C7565206973206E6F74207A65726F2C2063616E6E6F742072657365742E PUSH0 DUP3 ADD MSTORE POP JUMP JUMPDEST PUSH0 PUSH2 0x230 PUSH1 0x20 DUP4 PUSH2 0x1EC JUMP JUMPDEST SWAP2 POP PUSH2 0x23B DUP3 PUSH2 0x1FC JUMP JUMPDEST PUSH1 0x20 DUP3 ADD SWAP1 POP SWAP2 SWAP1 POP JUMP JUMPDEST PUSH0 PUSH1 0x20 DUP3 ADD SWAP1 POP DUP2 DUP2 SUB PUSH0 DUP4 ADD MSTORE PUSH2 0x25D DUP2 PUSH2 0x224 JUMP JUMPDEST SWAP1 POP SWAP2 SWAP1 POP JUMP JUMPDEST PUSH32 0x56616C7565206D7573742062652067726561746572207468616E207A65726F00 PUSH0 DUP3 ADD MSTORE POP JUMP JUMPDEST PUSH0 PUSH2 0x298 PUSH1 0x1F DUP4 PUSH2 0x1EC JUMP JUMPDEST SWAP2 POP PUSH2 0x2A3 DUP3 PUSH2 0x264 JUMP JUMPDEST PUSH1 0x20 DUP3 ADD SWAP1 POP SWAP2 SWAP1 POP JUMP JUMPDEST PUSH0 PUSH1 0x20 DUP3 ADD SWAP1 POP DUP2 DUP2 SUB PUSH0 DUP4 ADD MSTORE PUSH2 0x2C5 DUP2 PUSH2 0x28C JUMP JUMPDEST SWAP1 POP SWAP2 SWAP1 POP JUMP JUMPDEST PUSH32 0x4E487B7100000000000000000000000000000000000000000000000000000000 PUSH0 MSTORE PUSH1 0x11 PUSH1 0x4 MSTORE PUSH1 0x24 PUSH0 REVERT JUMPDEST PUSH0 PUSH2 0x303 DUP3 PUSH2 0x162 JUMP JUMPDEST SWAP2 POP PUSH2 0x30E DUP4 PUSH2 0x162 JUMP JUMPDEST SWAP3 POP DUP3 DUP3 ADD SWAP1 POP DUP1 DUP3 GT ISZERO PUSH2 0x326 JUMPI PUSH2 0x325 PUSH2 0x2CC JUMP JUMPDEST JUMPDEST SWAP3 SWAP2 POP POP JUMP JUMPDEST PUSH32 0x4E487B7100000000000000000000000000000000000000000000000000000000 PUSH0 MSTORE PUSH1 0x1 PUSH1 0x4 MSTORE PUSH1 0x24 PUSH0 REVERT INVALID LOG2 PUSH5 0x6970667358 0x22 SLT KECCAK256 GASPRICE PUSH8 0xD24258EB81422067 0xA8 MUL DUP11 0xD MSTORE POP 0xA8 0xF7 PUSH32 0xEDAFF2FD0DC6E18FCEB5AC8FCB64736F6C634300081A00330000000000000000 "
		},
		"gasEstimates": {
			"creation": {
				"codeDepositCost": "182200",
				"executionCost": "5237",
				"totalCost": "187437"
			},
			"external": {
				"increment()": "infinite",
				"resetValue()": "7256",
				"set(uint256)": "22558",
				"value()": "2424"
			}
		},
		"methodIdentifiers": {
			"increment()": "d09de08a",
			"resetValue()": "16e9fe81",
			"set(uint256)": "60fe47b1",
			"value()": "3fa4f245"
		}
	},
	"abi": [
		{
			"inputs": [],
			"stateMutability": "nonpayable",
			"type": "constructor"
		},
		{
			"inputs": [],
			"name": "increment",
			"outputs": [],
			"stateMutability": "nonpayable",
			"type": "function"
		},
		{
			"inputs": [],
			"name": "resetValue",
			"outputs": [],
			"stateMutability": "nonpayable",
			"type": "function"
		},
		{
			"inputs": [
				{
					"internalType": "uint256",
					"name": "_value",
					"type": "uint256"
				}
			],
			"name": "set",
			"outputs": [],
			"stateMutability": "nonpayable",
			"type": "function"
		},
		{
			"inputs": [],
			"name": "value",
			"outputs": [
				{
					"internalType": "uint256",
					"name": "",
					"type": "uint256"
				}
			],
			"stateMutability": "view",
			"type": "function"
		}
	]
}